:100000000C9462000C948A000C948A000C948A0070
:100010000C948A000C948A000C948A000C948A0038
:100020000C948A000C948A000C948A000C948A0028
:100030000C948A000C948A000C948A000C948A0018
:100040000C9490040C948A000C948A000C948A00FE
:100050000C948A000C948A000C948A000C948A00F8
:100060000C94DA040C948A0000000000240027009D
:100070002A0000000000250028002B0000000000DE
:1000800023002600290004040404040404040202DA
:100090000202020203030303030301020408102007
:1000A0004080010204081020010204081020000012
:1000B0000008000201000003040700000000000027
:1000C0000000040611241FBECFEFD8E0DEBFCDBF75
:1000D00011E0A0E0B1E0E2EEF6E102C005900D9281
:1000E000A234B107D9F721E0A2E4B1E001C01D922A
:1000F000AA3DB207E1F710E0C2E6D0E004C02197C4
:10010000FE010E94640BC136D107C9F70E94320676
:100110000C946F0B0C940000833081F028F4813034
:1001200099F08230A1F008958730A9F08830B9F0B5
:100130008430D1F4809180008F7D03C08091800055
:100140008F7780938000089584B58F7702C084B53F
:100150008F7D84BD08958091B0008F7703C080911A
:10016000B0008F7D8093B0000895CF93DF93282F48
:1001700030E0F901E255FF4F8491F901E656FF4F57
:10018000D491F901EA57FF4FC491CC2391F081112A
:100190000E948C00EC2FF0E0EE0FFF1FE458FF4FA1
:1001A000A591B491EC91ED2381E090E021F480E001
:1001B00002C080E090E0DF91CF9108951F93CF932C
:1001C000DF93282F30E0F901E255FF4F8491F901C8
:1001D000E656FF4FD491F901EA57FF4FC491CC2363
:1001E000C1F0162F81110E948C00EC2FF0E0EE0F71
:1001F000FF1FEE58FF4FA591B4919FB7F8941111CE
:1002000004C08C91D095D82302C0EC91DE2BDC93F6
:100210009FBFDF91CF911F910895CF93DF9390E01F
:10022000FC01E656FF4F2491FC01EA57FF4F8491F1
:10023000882361F190E0880F991FFC01E859FF4F76
:10024000C591D491FC01EE58FF4FA591B491611175
:1002500009C09FB7F8948881209582238883EC9108
:100260002E230BC0623061F49FB7F8948881322F3F
:10027000309583238883EC912E2B2C939FBF06C04F
:100280008FB7F894E8812E2B28838FBFDF91CF9111
:1002900008953FB7F8948091B2019091B301A09175
:1002A000B401B091B50126B5A89B05C02F3F19F048
:1002B0000196A11DB11D3FBFBA2FA92F982F8827E6
:1002C000820F911DA11DB11DBC01CD0142E0660F41
:1002D000771F881F991F4A95D1F70895CF92DF9213
:1002E000EF92FF920F931F93CF93DF936C017A01EC
:1002F0008B01C0E0D0E0CE15DF0581F0D8016D9113
:100300008D01D601ED91FC910190F081E02DC601A7
:100310000995892B11F02196EECF7E01C701DF915F
:10032000CF911F910F91FF90EF90DF90CF900895A4
:10033000CF93DF93EC0160E08E810E94DE0061E0EC
:100340008E810E94DE0060E08E810E94DE008BE8DC
:1003500091E00197F1F7DF91CF910895CF92DF926D
:10036000EF92FF920F931F93CF93DF936C017C0169
:1003700087E0E80EF11CC0E0D0E0062F10E0B801E5
:100380000C2E02C0759567950A94E2F76170F7012B
:1003900081917F010E94DE002196C430D10579F75A
:1003A000C601DF91CF911F910F91FF90EF90DF90E9
:1003B000CF900C949801CF92DF92EF92FF920F931F
:1003C0001F93CF93DF93EC01F62E642F8C810E9454
:1003D000DE008D818F3F19F060E00E94DE008F8586
:1003E0000F2D10E084FF25C06E0187E0C80ED11CE0
:1003F000E12CF12CB8010E2C02C0759567950A947A
:10040000E2F76170F60181916F010E94DE00FFEF5B
:10041000EF1AFF0A88E0E816F10461F7CE01DF91D8
:10042000CF911F910F91FF90EF90DF90CF900C94A0
:100430009801B80184E0759567958A95E1F7CE013A
:100440000E94AE016F2DCE01DF91CF911F910F91D0
:10045000FF90EF90DF90CF900C94AE0140E0682FBA
:1004600082EC91E00C94DB0181E00E942E028BE390
:100470009FE10197F1F70895CF93DF93823028F041
:100480009091D10198609093D1018093D501109201
:10049000D60180E48093D70180E18093D80180E584
:1004A0008093D90161E08091C6010E940D01809185
:1004B000C7018F3F19F061E00E940D0161E080915A
:1004C000C8010E940D01C2ECD1E09E01225C3140C6
:1004D0008091D10184FD03C084E090E002C088E0F7
:1004E00090E02196281739072CF461E08E810E9454
:1004F0000D01EBCF8BE39DE00197F1F760E0809178
:10050000C6010E94DE0060E08091C8010E94DE000A
:100510008091C7018F3F19F060E00E94DE0080915A
:10052000D10184FD20C063E082EC91E00E94AE0125
:10053000CBE4D6E4CE010197F1F763E082EC91E0E1
:100540000E94AE012197F1F763E082EC91E00E94F6
:10055000AE0183E592E00197F1F762E082EC91E071
:100560000E94AE0115C080620E942E028BE496E4C8
:100570000197F1F78091D10180620E942E0283E5FC
:1005800092E00197F1F78091D10180620E942E02E2
:100590008091D10180620E942E0284E08093D2017A
:1005A0008CE00E942E020E94340282E08093D301EC
:1005B00086E0DF91CF910C942E02643008F063E066
:1005C0009091D501691710F06FEF690FE62FF0E0F9
:1005D000EE53FE4F9489890F80680C942E0241E0FF
:1005E0000E94DB0181E090E0089585ED8093BC00DE
:1005F0008091BC0084FDFCCF10928701089540914A
:100600006301262F30E0240F311D21323105DCF447
:10061000209187012430C9F4FC0180E090E0861726
:1006200058F4309163012191DC01AD5BBE4FA30F03
:10063000B11D2C930196F3CF80916301680F6093F5
:10064000630180E0089581E0089582E008950895AF
:100650008FEF9FEF08958FEF9FEF089580914201F4
:1006600090E09195819591090895CF93DF93CB0107
:10067000EA01642F0E94FF02CE01DF91CF9108951D
:10068000CF93DF931F92CDB7DEB7698361E0CE01D0
:1006900001960E94FF0281E090E00F90DF91CF91E0
:1006A0000895089580E090E00895009769F0FC01B6
:1006B00001900020E9F73197AF01481B590BBC01AD
:1006C00082EC91E00C946E0180E090E008952F920E
:1006D0003F924F925F926F927F928F929F92AF92D2
:1006E000BF92CF92DF92EF92FF920F931F93CF931F
:1006F000DF93CDB7DEB7A5970FB6F894DEBF0FBE78
:10070000CDBF4B015C01F42E9B01AC010E94150B87
:10071000882319F08EE191E027C024013501E89487
:1007200077F82FEF3FEF4FE75FE7C301B2010E9479
:10073000150B81110DC02FEF3FEF4FE75FE7C301AE
:10074000B2010E94440918161CF482E291E00CC028
:100750002FEF3FEF4FE75FE4C501B4010E94A30A0A
:1007600018162CF486E291E00E945503BEC02FEFCC
:100770003FEF4FE75FECC501B4010E94440987FDDC
:10078000F1CF20E030E0A901C501B4010E94440985
:1007900087FF0FC041E06DE282EC91E00E94DB0137
:1007A000B7FAB094B7F8B09481E090E09BA38AA325
:1007B00002C01BA21AA210E060E070E080E09FE39C
:1007C000F11641F020E030E040E251E40E94490996
:1007D0001F5FF6CFA50194010E94D8084B015C0170
:1007E0000E94C209762EC72ED82EE92E19A2262FD6
:1007F000372F482F592F8E010F5D1F4F0CA3612EED
:100800009AE0292E312C412C512CCA01B901A201A8
:1008100091010E942E0B605DF80162938F012115FA
:1008200031054105510589F7CF010E9455030AA101
:100830001BA1080F191FFF2009F456C0672D7C2D3E
:100840008D2D9E2D0E94F1099B01AC01C501B401C3
:100850000E94D7084B015C0141E06EE282EC91E01E
:100860000E94DB010F5F1F4F8AE0282E312C412CA4
:10087000512C20E030E040E251E4C501B4010E9477
:10088000A80A4B015C010E94C2099B0140E050E0B4
:1008900019A2CCA0D62C762E3AA34DA3E52ECA01E0
:1008A000B901A20191010E942E0B605DF6016293D5
:1008B0006F01211531054105510589F7CF010E94CE
:1008C0005503080F191F672D7AA18DA19E2D0E9437
:1008D000F1099B01AC01C501B4010E94D7084B018D
:1008E0005C01FA94F110C5CFC801A5960FB6F89433
:1008F000DEBF0FBECDBFDF91CF911F910F91FF9053
:10090000EF90DF90CF90BF90AF909F908F907F90AF
:100910006F905F904F903F902F9008950E946A0BC8
:100920001F920F920FB60F9211242F933F938F9324
:100930009F93AF93BF938091AE019091AF01A0912F
:10094000B001B091B1013091AD0123E0230F2D37FB
:1009500020F40196A11DB11D05C026E8230F0296C3
:10096000A11DB11D2093AD018093AE019093AF0105
:10097000A093B001B093B1018091B2019091B30105
:10098000A091B401B091B5010196A11DB11D809354
:10099000B2019093B301A093B401B093B501BF919C
:1009A000AF919F918F913F912F910F900FBE0F901C
:1009B0001F9018951F920F920FB60F9211242F932C
:1009C0003F934F935F936F937F938F939F93AF93D7
:1009D000BF93EF93FF938091B900887F803609F42D
:1009E0009CC068F5883209F45BC090F4803109F44A
:1009F00054C038F4882309F4F2C0883009F44DC09B
:100A0000F2C0883109F44CC0803209F45DC0EBC0FB
:100A1000803409F468C048F4803309F455C0883341
:100A200009F0E1C080938601D4C0803509F44FC03D
:100A3000883509F45DC0883409F0D5C0D2C0883942
:100A400009F4C3C0A8F4883709F467C038F48836BD
:100A500009F463C0803709F460C0C5C0883809F460
:100A6000B4C0803909F45FC0803809F0BCC05BC0F5
:100A7000803B09F484C038F4803A09F466C0883AAF
:100A800009F47DC0B0C0803C09F4A3C0883C09F4DF
:100A9000A0C0883B09F486C0A6C08091AC0110C0FC
:100AA0009091AB018091AA01981770F5E091AB018C
:100AB00081E08E0F8093AB01F0E0E657FE4F80811E
:100AC0008093BB0085EC82C0809386018AC0E09150
:100AD000AB0181E08E0F8093AB018091BB00F0E011
:100AE000E657FE4F80839091AB018091AA016AC0C6
:100AF000E091AB0181E08E0F8093AB018091BB0050
:100B0000F0E0E657FE4F808380918901811169C032
:100B100081E08093880184EA5DC083E0809387014F
:100B200010928501CFCF80918501803208F04DC0B1
:100B3000E091850181E08E0F809385018091BB005B
:100B4000F0E0EB59FE4F8083BDCF85EC8093BC0075
:100B50001092870180918501803230F4E091850107
:100B6000F0E0EB59FE4F10826091850170E085E660
:100B700091E0E0E0F0E009951092850134C084E056
:100B8000809387011092640110926301E0E0F0E02D
:100B9000099580916301811105C081E08093630113
:100BA00010924301E091640181E08E0F8093640113
:100BB000F0E0ED5BFE4F80818093BB00909164017B
:100BC00080916301981708F47DCF85E88093BC007D
:100BD0000AC085EC8093BC001092870104C010927B
:100BE00086010E94F502FF91EF91BF91AF919F9115
:100BF0008F917F916F915F914F913F912F910F90C6
:100C00000FBE0F901F901895E6EBF1E01382128251
:100C100088EE93E0A0E0B0E084839583A683B78359
:100C200084E091E091838083E2ECF1E01382128210
:100C300086E191E0918380838DE084838FEF8583CB
:100C40008CE0868388E087838AE080878BE08187D9
:100C50008FE082871386148615861686178681E0B4
:100C60000C943C02CF93DF9300D000D000D0CDB7DE
:100C7000DEB7789484B5826084BD84B5816084BD1C
:100C800085B5826085BD85B5816085BD80916E002A
:100C9000816080936E00109281008091810082605B
:100CA0008093810080918100816080938100809198
:100CB00080008160809380008091B1008460809387
:100CC000B1008091B00081608093B00080917A0083
:100CD000846080937A0080917A00826080937A00A9
:100CE00080917A00816080937A0080917A00806898
:100CF00080937A001092C10061E08EE00E940D01A5
:100D000061E08EE00E94DE0061E08FE00E940D0154
:100D100061E08FE00E94DE0060E080E00E940D0153
:100D200060E081E00E940D0160E082E00E940D0120
:100D300060E083E00E940D0160E084E00E940D010C
:100D400060E085E00E940D0160E086E00E940D01F8
:100D500060E087E00E940D0182E00E943C0282E098
:100D60000E942E028BE39FE10197F1F761E089E099
:100D70000E940D0180E48093800089E080938100CF
:100D800010926F0080E190E090938900809388003A
:100D9000A6E68A2EA3E09A2E60E08EE00E94DE0096
:100DA00080E00E94B5005C0181E00E94B5006C010A
:100DB00082E00E94B5007C0183E00E94B5008C01B6
:100DC00084E00E94B5009E838D8385E00E94B5007B
:100DD0001C0186E00E94B5009A83898387E00E9407
:100DE000B5009C838B83B601660F771F072E000C1E
:100DF000880B990B0E94F3092B013C01B501BB0C38
:100E0000880B990B0E94F3099B01AC01C301B2014D
:100E10000E94D8082B013C01B701660F771F660FAF
:100E2000771F072E000C880B990B0E94F3099B017A
:100E3000AC01C301B2010E94D8086B017C01B8016A
:100E400093E0660F771F9A95E1F7072E000C880B49
:100E5000990B0E94F3099B01AC01C701B6010E94E6
:100E6000D8086B017C012D813E8144E0220F331FA5
:100E70004A95E1F7B901330F880B990B0E94F309EA
:100E80009B01AC01C701B6010E94D8086B017C012F
:100E9000B10155E0660F771F5A95E1F7072E000C58
:100EA000880B990B0E94F3099B01AC01C701B601A5
:100EB0000E94D8086B017C0169817A81E6E0660FA7
:100EC000771FEA95E1F7072E000C880B990B0E941B
:100ED000F3099B01AC01C701B6010E94D8086B0160
:100EE0007C016B817C817695762F66277795679557
:100EF000072E000C880B990B0E94F3099B01AC0193
:100F0000C701B6010E94D8080E94BB0944E6469F6B
:100F10009001479F300D1124C9016FEF70E00E94CE
:100F20001A0B072E000C880B990B0E94F3096B011A
:100F30007C0160E086E00E94DD022AE939E949E9A6
:100F40005EE3C701B6010E94D80843E00E94670330
:100F500061E081E00E94DD028AE291E00E94550397
:100F600081E0881A910809F017CF0E943402A6E6A2
:100F70008A2EA3E09A2E61E08EE00E94DE0080E0DF
:100F80000E94B5005C0181E00E94B5006C0182E026
:100F90000E94B5007C0183E00E94B5008C0184E0D2
:100FA0000E94B5009E838D8385E00E94B5001C01E0
:100FB00086E00E94B5009A83898387E00E94B5008D
:100FC0009C838B8360E086E00E94DD02B601660FA1
:100FD000771F072E000C880B990B0E94F3092B0139
:100FE0003C01B501BB0C880B990B0E94F3099B01D6
:100FF000AC01C301B2010E94D8082B013C01B7012A
:10100000660F771F660F771F072E000C880B990B52
:101010000E94F3099B01AC01C301B2010E94D808F0
:101020006B017C01B80133E0660F771F3A95E1F759
:10103000072E000C880B990B0E94F3099B01AC0151
:10104000C701B6010E94D8086B017C012D813E8149
:1010500044E0220F331F4A95E1F7B901330F880BA3
:10106000990B0E94F3099B01AC01C701B6010E94D4
:10107000D8086B017C01B10155E0660F771F5A95C6
:10108000E1F7072E000C880B990B0E94F3099B01D6
:10109000AC01C701B6010E94D8086B017C016981CF
:1010A0007A81E6E0660F771FEA95E1F7072E000CDC
:1010B000880B990B0E94F3099B01AC01C701B60193
:1010C0000E94D8086B017C016B817C817695762F1C
:1010D000662777956795072E000C880B990B0E9461
:1010E000F3099B01AC01C701B6010E94D8080E9418
:1010F000BB09072E000C880B990B0E94F30920E016
:1011000030E040EA50E40E94A80A20E030E04FE7D7
:1011100053E40E94490920E030E040E250E40E949C
:10112000D7082DEC3CEC4CEC5DE30E94490943E010
:101130000E94670361E085E00E94DD0289E391E09F
:101140000E94550331E0831A910809F014CF0E94E0
:1011500034020E9449016B017C018AE0882E912CA7
:10116000A12CB12C0E944901DC01CB018C199D09F5
:10117000AE09BF09883E9340A105B10598F341E04F
:10118000841A9108A108B10888EEC80E83E0D81E21
:10119000E11CF11C81149104A104B10419F780E051
:1011A00090E0892B09F4F4CD0E940000F1CD505855
:1011B000BB27AA270E94EF080C94690A0E945B0AC9
:1011C00038F00E94620A20F039F49F3F19F426F4A7
:1011D0000C94580A0EF4E095E7FB0C94520AE92FA0
:1011E0000E947A0A58F3BA176207730784079507B3
:1011F00020F079F4A6F50C949C0A0EF4E0950B2EE1
:10120000BA2FA02D0B01B90190010C01CA01A00158
:101210001124FF27591B99F0593F50F4503E68F1B3
:101220001A16F040A22F232F342F4427585FF3CFF4
:10123000469537952795A795F0405395C9F77EF4C5
:101240001F16BA0B620B730B840BBAF09150A1F00E
:10125000FF0FBB1F661F771F881FC2F70EC0BA0F94
:10126000621F731F841F48F4879577956795B7951C
:10127000F7959E3F08F0B0CF9395880F08F0992717
:10128000EE0F9795879508950E942E0A08F481E045
:1012900008950E945D090C94690A0E94620A58F040
:1012A0000E945B0A40F029F45F3F29F00C94520A37
:1012B00051110C949D0A0C94580A0E947A0A68F302
:1012C0009923B1F3552391F3951B550BBB27AA27FF
:1012D00062177307840738F09F5F5F4F220F331F39
:1012E000441FAA1FA9F335D00E2E3AF0E0E832D001
:1012F00091505040E695001CCAF72BD0FE2F29D004
:10130000660F771F881FBB1F261737074807AB07D5
:10131000B0E809F0BB0B802DBF01FF2793585F4F4A
:101320003AF09E3F510578F00C94520A0C949D0AB5
:101330005F3FE4F3983ED4F3869577956795B7952C
:10134000F7959F5FC9F7880F911D9695879597F937
:101350000895E1E0660F771F881FBB1F62177307B0
:101360008407BA0720F0621B730B840BBA0BEE1FC5
:1013700088F7E09508950E94C2096894B1110C9411
:101380009D0A08950E94820A88F09F5798F0B92F0D
:101390009927B751B0F0E1F0660F771F881F991FAA
:1013A0001AF0BA95C9F714C0B13091F00E949C0AA6
:1013B000B1E008950C949C0A672F782F8827B85FB6
:1013C00039F0B93FCCF3869577956795B395D9F702
:1013D0003EF490958095709561957F4F8F4F9F4F0C
:1013E0000895E89409C097FB3EF490958095709518
:1013F00061957F4F8F4F9F4F9923A9F0F92F96E961
:10140000BB279395F695879577956795B795F111D5
:10141000F8CFFAF4BB0F11F460FF1BC06F5F7F4F72
:101420008F4F9F4F16C0882311F096E911C0772384
:1014300021F09EE8872F762F05C0662371F096E88D
:10144000862F70E060E02AF09A95660F771F881F5C
:10145000DAF7880F9695879597F90895990F000800
:10146000550FAA0BE0E8FEEF16161706E807F90776
:10147000C0F012161306E407F50798F0621B730B11
:10148000840B950B39F40A2661F0232B242B252B92
:1014900021F408950A2609F4A140A6958FEF811D35
:1014A000811D089597F99F6780E870E060E00895D6
:1014B0009FEF80EC089500240A941616170618066C
:1014C0000906089500240A94121613061406050648
:1014D0000895092E0394000C11F4882352F0BB0FD9
:1014E00040F4BF2B11F460FF04C06F5F7F4F8F4F3C
:1014F0009F4F089557FD9058440F551F59F05F3F77
:1015000071F04795880F97FB991F61F09F3F79F025
:1015100087950895121613061406551FF2CF4695A7
:10152000F1DF08C0161617061806991FF1CF869529
:101530007105610508940895E894BB27662777270D
:10154000CB0197F908950E942E0A08F48FEF0895B1
:101550000E94BB0A0C94690A0E945B0A38F00E9440
:10156000620A20F0952311F00C94520A0C94580A48
:1015700011240C949D0A0E947A0A70F3959FC1F37E
:10158000950F50E0551F629FF001729FBB27F00D31
:10159000B11D639FAA27F00DB11DAA1F649F662786
:1015A000B00DA11D661F829F2227B00DA11D621FD5
:1015B000739FB00DA11D621F839FA00D611D221F8F
:1015C000749F3327A00D611D231F849F600D211D73
:1015D000822F762F6A2F11249F5750409AF0F1F0F6
:1015E00088234AF0EE0FFF1FBB1F661F771F881F5F
:1015F00091505040A9F79E3F510580F00C94520A3B
:101600000C949D0A5F3FE4F3983ED4F3869577955A
:101610006795B795F795E7959F5FC1F7FE2B880F04
:10162000911D9695879597F908950E942E0A880B2B
:10163000990B089597FB072E16F4009407D077FDB9
:1016400009D00E94500B07FC05D03EF4909581957F
:101650009F4F0895709561957F4F0895A1E21A2ECE
:10166000AA1BBB1BFD010DC0AA1FBB1FEE1FFF1F46
:10167000A217B307E407F50720F0A21BB30BE40B96
:10168000F50B661F771F881F991F1A9469F76095DD
:101690007095809590959B01AC01BD01CF01089597
:1016A000AA1BBB1B51E107C0AA1FBB1FA617B70788
:1016B00010F0A61BB70B881F991F5A95A9F78095A4
:1016C0009095BC01CD010895EE0FFF1F0590F49198
:1016D000E02D099481E090E0F8940C946F0BF8945D
:0216E000FFCF3A
:1016E2000000000040033503520327032E032B039F
:1016F200280300000000EF026E01520351036E61E5
:101702006E00696E66006F766600477261646F7381
:101712002043656C7369757300416D706572696F02
:02172200730052
:107E0000112484B714BE81FFF0D085E080938100F7
:107E100082E08093C00088E18093C10086E0809377
:107E2000C20080E18093C4008EE0C9D0259A86E02C
:107E300020E33CEF91E0309385002093840096BBD3
:107E4000B09BFECF1D9AA8958150A9F7CC24DD24C4
:107E500088248394B5E0AB2EA1E19A2EF3E0BF2EE7
:107E6000A2D0813461F49FD0082FAFD0023811F036
:107E7000013811F484E001C083E08DD089C08234E0
:107E800011F484E103C0853419F485E0A6D080C0E4
:107E9000853579F488D0E82EFF2485D0082F10E0AE
:107EA000102F00270E291F29000F111F8ED06801E7
:107EB0006FC0863521F484E090D080E0DECF843638
:107EC00009F040C070D06FD0082F6DD080E0C81688
:107ED00080E7D80618F4F601B7BEE895C0E0D1E017
:107EE00062D089930C17E1F7F0E0CF16F0E7DF06D8
:107EF00018F0F601B7BEE89568D007B600FCFDCFD4
:107F0000A601A0E0B1E02C9130E011968C91119780
:107F100090E0982F8827822B932B1296FA010C0160
:107F200087BEE89511244E5F5F4FF1E0A038BF0790
:107F300051F7F601A7BEE89507B600FCFDCF97BE46
:107F4000E89526C08437B1F42ED02DD0F82E2BD052
:107F50003CD0F601EF2C8F010F5F1F4F84911BD097
:107F6000EA94F801C1F70894C11CD11CFA94CF0C13
:107F7000D11C0EC0853739F428D08EE10CD085E9AC
:107F80000AD08FE07ACF813511F488E018D01DD067
:107F900080E101D065CF982F8091C00085FFFCCF94
:107FA0009093C60008958091C00087FFFCCF809118
:107FB000C00084FD01C0A8958091C6000895E0E648
:107FC000F0E098E1908380830895EDDF803219F02E
:107FD00088E0F5DFFFCF84E1DECF1F93182FE3DFCA
:107FE0001150E9F7F2DF1F91089580E0E8DFEE27F6
:047FF000FF270994CA
:027FFE00040479
:0400000300007E007B
:00000001FF
