:100000000C9462000C948A000C948A000C948A0070
:100010000C948A000C948A000C948A000C948A0038
:100020000C948A000C948A000C948A000C948A0028
:100030000C948A000C948A000C948A000C948A0018
:100040000C9477040C948A000C948A000C948A0017
:100050000C948A000C948A000C948A000C948A00F8
:100060000C94C1040C948A000000000024002700B6
:100070002A0000000000250028002B0000000000DE
:1000800023002600290004040404040404040202DA
:100090000202020203030303030301020408102007
:1000A0004080010204081020010204081020000012
:1000B0000008000201000003040700000000000027
:1000C0000000DC0511241FBECFEFD8E0DEBFCDBF9E
:1000D00011E0A0E0B1E0E2E4F6E102C005900D928B
:1000E000A033B107D9F721E0A0E3B1E001C01D9230
:1000F000AC3BB207E1F710E0C2E6D0E004C02197C4
:10010000FE010E94190BC136D107C9F70E94FA05FA
:100110000C941F0B0C940000AF92BF92CF92DF9211
:10012000EF92FF920F931F93CF93DF936C017B01AC
:100130008B01040F151FEB015E01AE18BF08C0173D
:10014000D10759F06991D601ED91FC910190F081B0
:10015000E02DC6010995892B79F7C501DF91CF9173
:100160001F910F91FF90EF90DF90CF90BF90AF90D5
:100170000895833081F028F4813099F08230A9F01D
:1001800008958730A9F08830C9F08430B1F48091A7
:1001900080008F7D03C0809180008F7780938000E6
:1001A000089584B58F7784BD089584B58F7DFBCF86
:1001B0008091B0008F778093B00008958091B00057
:1001C0008F7DF9CFCF93DF93282F30E0F901E255EF
:1001D000FF4F8491F901E656FF4FD491F901EA5798
:1001E000FF4FC491CC23A1F081110E94B900EC2FE4
:1001F000F0E0EE0FFF1FE458FF4FA591B491EC9192
:10020000ED2381E090E009F480E0DF91CF91089543
:1002100080E090E0FACF1F93CF93DF93282F30E058
:10022000F901E255FF4F8491F901E656FF4FD49151
:10023000F901EA57FF4FC491CC23A9F0162F811181
:100240000E94B900EC2FF0E0EE0FFF1FEE58FF4FB9
:10025000A591B4918FB7F894EC91111108C0D09585
:10026000DE23DC938FBFDF91CF911F910895DE2BAA
:10027000F8CFCF93DF9390E0FC01E656FF4F249137
:100280008A579F4FFC0184918823D1F090E0880F1A
:10029000991FFC01E859FF4FA591B491FC01EE585C
:1002A000FF4FC591D49161110EC09FB7F8948C9106
:1002B000E22FE0958E238C932881E223E8839FBF71
:1002C000DF91CF9108958FB7F894EC91E22BEC93E6
:1002D0008FBFF6CF3FB7F8948091A0019091A10114
:1002E000A091A201B091A30126B5A89B05C02F3F04
:1002F00019F00196A11DB11D3FBFBA2FA92F982F4C
:100300008827BC01CD01620F711D811D911D42E046
:10031000660F771F881F991F4A95D1F70895089592
:1003200085ED8093BC008091BC0084FDFCCF1092D1
:100330007501089520915101260F3327331F213273
:100340003105ECF420917501FC0190E080E024304F
:1003500069F082E00895A09151012191AC014F5CB8
:100360005E4FA40FB52FB11D2C930196861798F3FD
:1003700080915101680F6093510180E0089581E000
:10038000089508958FEF9FEF08958FEF9FEF0895E1
:100390008091300190E09195819591090895CF93D6
:1003A000DF93CB01EA01642F0E949A01CE01DF9115
:1003B000CF910895CF93DF931F92CDB7DEB76983B6
:1003C00061E0CE0101960E949A0181E090E00F90D9
:1003D000DF91CF91089590E080E00895FC010190B5
:1003E0000020E9F73197AF01481B590BBC0184EAA3
:1003F00091E00C948C008F929F92AF92BF920F93DA
:100400001F93CF93DF93CDB7DEB7A1970FB6F894C4
:10041000DEBF0FBECDBF19A2423008F44AE08E0104
:100420000F5D1F4F842E912CB12CA12CA50194019E
:100430000E94F70AE62FB901CA01EA30F4F4E05D40
:10044000D801EE938D01232B242B252B79F790E0F7
:1004500080E0109719F0CD010E94EE01A1960FB631
:10046000F894DEBF0FBECDBFDF91CF911F910F91EA
:10047000BF90AF909F908F900895E95CE1CFCF93AC
:10048000DF93EC0160E08E810E940B0161E08E81C0
:100490000E940B0160E08E810E940B018BE891E0CD
:1004A0000197F1F7DF91CF910895CF92DF92EF920C
:1004B000FF920F931F93CF93DF936C017C0187E032
:1004C000E80EF11CD0E0C0E0062F10E0B8010C2EC1
:1004D00002C0759567950A94E2F76170F701819102
:1004E0007F010E940B012196C430D10579F7C60126
:1004F000DF91CF911F910F91FF90EF90DF90CF9000
:100500000C943F02CF92DF92EF92FF920F931F93D2
:10051000CF93DF93EC01F62E642F8C810E940B01A8
:100520008D818F3F19F060E00E940B010F2D10E0CC
:100530008F8584FF25C06E0187E0C80ED11CF12C89
:10054000E12CB8010E2C02C0759567950A94E2F76C
:100550006170F60181916F010E940B01FFEFEF1AAC
:10056000FF0A88E0E816F10461F7CE01DF91CF9130
:100570001F910F91FF90EF90DF90CF900C943F026E
:10058000B80184E0759567958A95E1F7CE010E94E0
:1005900055026F2DCE01DF91CF911F910F91FF90EA
:1005A000EF90DF90CF900C94550240E0682F84EAE2
:1005B00091E00C94820281E00E94D5028BE39FE1DE
:1005C0000197F1F70895CF93DF93823029F490914A
:1005D000B30198609093B3018093B7011092B80172
:1005E00080E48093B90180E18093BA0180E5809333
:1005F000BB0161E08091A8010E9439018091A901AD
:100600008F3F19F061E00E94390161E08091AA01F9
:100610000E943901C4EAD1E09E01245A3140809100
:10062000B30184FD0BC084E090E0219628173907C0
:1006300044F461E08E810E943901EECF88E090E0C1
:10064000F4CF8BE39DE00197F1F760E08091A80182
:100650000E940B0160E08091AA010E940B01809131
:10066000A9018F3F19F060E00E940B018091B30156
:1006700084FD34C063E084EA91E00E945502CBE43B
:10068000D6E4CE010197F1F763E084EA91E00E949D
:1006900055022197F1F763E084EA91E00E94550248
:1006A00083E592E00197F1F762E084EA91E00E942D
:1006B00055028091B30180620E94D50284E080934C
:1006C000B4018CE00E94D5020E94DB0282E080939C
:1006D000B50186E0DF91CF910C94D50280620E9433
:1006E000D5028BE496E40197F1F78091B301806223
:1006F0000E94D50283E592E00197F1F78091B30162
:1007000080620E94D502D5CF9091B701691710F091
:100710006FEF690FE62FF0E0EC55FE4F9489890FDB
:1007200080680C94D50241E00E94820281E090E052
:1007300008954F925F926F927F928F929F92AF92A5
:10074000BF92CF92DF92EF92FF920F931F93CF93BE
:100750006B017C01742EAC019B010E94F20A88237C
:1007600099F08CE091E0CF911F910F91FF90EF9065
:10077000DF90CF90BF90AF909F908F907F906F90C1
:100780005F904F900C94EE0146015701E894B7F842
:100790002FEF3FEF4FE75FE7C501B4010E94F20A78
:1007A00081110DC02FEF3FEF4FE75FE7C501B401A7
:1007B0000E94210918161CF480E191E0D4CF2FEF9C
:1007C0003FEF4FE75FE4C701B6010E94800A1816A9
:1007D0001CF484E191E0C7CF2FEF3FEF4FE75FECD0
:1007E000C701B6010E94210987FDF3CF20E030E068
:1007F000A901C701B6010E94210910E000E087FFAE
:100800000CC041E06DE284EA91E00E948202F7FAB6
:10081000F094F7F8F09401E010E0C0E060E070E0E0
:1008200080E09FE37C1641F020E030E040E251E4BC
:100830000E942609CF5FF6CFA70196010E94B50856
:100840004B015C010E949F092B013C014AE00E9480
:10085000FB01080F191FCC23C9F1C301B2010E948B
:10086000CE099B01AC01C501B4010E94B4084B0143
:100870005C0141E06EE284EA91E00E9482020F5F37
:100880001F4FC15018F120E030E040E251E4C501B3
:10089000B4010E94850A2B013C010E949F094B0173
:1008A000B12CA12C4AE0C501B4010E94FB01080F44
:1008B000191FC501B4010E94CE099B01AC01C301FF
:1008C000B2010E94B4084B015C01DBCFC801CF919B
:1008D0001F910F91FF90EF90DF90CF90BF90AF905E
:1008E0009F908F907F906F905F904F9008951F9290
:1008F0000F920FB60F9211242F933F938F939F93D4
:10090000AF93BF9380919C0190919D01A0919E0116
:10091000B0919F0130919B0123E0230F2D3758F5B3
:100920000196A11DB11D20939B0180939C01909382
:100930009D01A0939E01B0939F018091A001909191
:10094000A101A091A201B091A3010196A11DB11D29
:100950008093A0019093A101A093A201B093A30161
:10096000BF91AF919F918F913F912F910F900FBEAB
:100970000F901F90189526E8230F0296A11DB11D18
:10098000D2CF1F920F920FB60F9211242F933F9345
:100990004F935F936F937F938F939F93AF93BF9387
:1009A000EF93FF938091B900887F803609F44AC0A5
:1009B000F0F5883209F4A5C018F5803109F499C022
:1009C000B8F4882309F4F5C0883009F492C0FF9187
:1009D000EF91BF91AF919F918F917F916F915F91B7
:1009E0004F913F912F910F900FBE0F901F90189530
:1009F000883109F486C0803251F78093740114C0A5
:100A0000803409F49BC040F48033B9F38833F9F69D
:100A10008093740185ECAEC0803509F483C08835BD
:100A200009F494C0883499F60E949001D0CF883997
:100A300009F48AC038F5883729F050F4883611F067
:100A4000803729F683E0809375011092730155C0B9
:100A5000883809F479C0803919F0803809F0B7CFA7
:100A600080917301803208F06FC0E091730181E0E2
:100A70008E0F809373018091BB00F0E0ED5AFE4F22
:100A800080833BC0803B39F0D0F4803A09F477C0D2
:100A9000883A09F09CCF84E080937501109252014E
:100AA00010925101F0E0E0E009958091510181112F
:100AB0000FC081E0809351011092310109C0803C48
:100AC00009F4A8CF883C09F4A5CF883B09F07FCF73
:100AD000E091520181E08E0F80935201F0E0EF5CD3
:100AE000FE4F80818093BB00909152018091510113
:100AF00029C080919A018093BB0085EC8093BC0053
:100B000066CF9091990180919801981758F5E091DE
:100B1000990181E08E0F80939901F0E0E858FE4F33
:100B20008081E9CFE091990181E08E0F8093990156
:100B30008091BB00F0E0E858FE4F808390919901CE
:100B4000809198019817C8F285E8D8CFE091990173
:100B500081E08E0F809399018091BB00F0E0E8580E
:100B6000FE4F80838091770181115ECF81E0809379
:100B7000760184EA8093BC001092750128CF85EC41
:100B80008093BC001092750180917301803230F423
:100B9000E0917301F0E0ED5AFE4F10826091730115
:100BA00070E083E591E0F0E0E0E0099510927301D8
:100BB0000ECF1092740138CFE4EAF1E01382128272
:100BC00084E091E0918380838DE084838FEF85833F
:100BD0008CE0868388E087838AE080878BE081874A
:100BE0008FE082871386148615861686178681E025
:100BF0000C94E302CF93DF9300D000D000D0CDB7A8
:100C0000DEB7789484B5826084BD84B5816084BD8C
:100C100085B5826085BD85B5816085BD80916E009A
:100C2000816080936E0010928100809181008260CB
:100C30008093810080918100816080938100809108
:100C400080008160809380008091B10084608093F7
:100C5000B1008091B00081608093B00080917A00F3
:100C6000846080937A0080917A00826080937A0019
:100C700080917A00816080937A0080917A00806808
:100C800080937A001092C10061E08EE00E943901E9
:100C900061E08EE00E940B0161E08FE00E9439016B
:100CA00061E08FE00E940B0160E080E00E9439016A
:100CB00060E081E00E94390160E082E00E94390139
:100CC00060E083E00E94390160E084E00E94390125
:100CD00060E085E00E94390160E086E00E94390111
:100CE00060E087E00E94390182E00E94E30282E036
:100CF0000E94D5028BE39FE10197F1F761E089E063
:100D00000E94390180E48093800089E08093810013
:100D100010926F0080E190E09093890080938800AA
:100D200065EE862E9924939460E08EE00E940B017C
:100D300080E00E94E2005C0181E00E94E2006C0120
:100D400082E00E94E2007C0183E00E94E2008C01CC
:100D500084E00E94E2009E838D8385E00E94E20091
:100D60001C0186E00E94E2009A83898387E00E944A
:100D7000E2009C838B83B601660F771F072E000C61
:100D8000880B990B0E94D0092B013C01B501BB0CCB
:100D9000880B990B0E94D0099B01AC01C301B201E1
:100DA0000E94B5082B013C01B701660F771F660F43
:100DB000771F072E000C880B990B0E94D0099B010E
:100DC000AC01C301B2010E94B5086B017C01B801FE
:100DD00093E0660F771F9A95E1F7072E000C880BBA
:100DE000990B0E94D0099B01AC01C701B6010E947A
:100DF000B5086B017C016D817E8124E0660F771F51
:100E00002A95E1F7072E000C880B990B0E94D00958
:100E10009B01AC01C701B6010E94B5086B017C01C2
:100E2000B10135E0660F771F3A95E1F7072E000C08
:100E3000880B990B0E94D0099B01AC01C701B60138
:100E40000E94B5086B017C0169817A8146E0660FDA
:100E5000771F4A95E1F7072E000C880B990B0E942B
:100E6000D0099B01AC01C701B6010E94B5086B0116
:100E70007C016B817C817695762F662777956795C7
:100E8000072E000C880B990B0E94D0099B01AC0126
:100E9000C701B6010E94B5080E949809072E000CF0
:100EA000880B990B0E94D0096B017C0122E539E483
:100EB0004DE95AE30E94850AA70196010E94850A1E
:100EC0002B013C012EE835E741EF5FE3C701B60196
:100ED0000E94850A9B01AC01C301B2010E94B508C2
:100EE00021E136E34CEF5EE30E94B5086B017C0123
:100EF00060E086E00E9484032AE939E949E15FE382
:100F0000C701B6010E94B50843E00E94990361E061
:100F100081E00E94840388E191E00E94EE0121E0DB
:100F2000821A910809F000CF0E94DB02AAEC8A2EF7
:100F3000A3E09A2E61E08EE00E940B0180E00E9407
:100F4000E2005C0181E00E94E2006C0182E00E940C
:100F5000E2007C0183E00E94E2008C0184E00E94B8
:100F6000E2009E838D8385E00E94E2001C0186E002
:100F70000E94E2009A83898387E00E94E2009C83BA
:100F80008B8360E086E00E948403B601660F771FC2
:100F9000072E000C880B990B0E94D0092B013C01F5
:100FA000B501BB0C880B990B0E94D0099B01AC01C9
:100FB000C301B2010E94B5082B013C01B701660FC5
:100FC000771F660F771F072E000C880B990B0E9466
:100FD000D0099B01AC01C301B2010E94B5086B01AD
:100FE0007C01B80133E0660F771F3A95E1F7072ED1
:100FF000000C880B990B0E94D0099B01AC01C70122
:10100000B6010E94B5086B017C016D817E8144E0D0
:10101000660F771F4A95E1F7072E000C880B990B96
:101020000E94D0099B01AC01C701B6010E94B5081E
:101030006B017C01B10155E0660F771F5A95E1F70E
:10104000072E000C880B990B0E94D0099B01AC0164
:10105000C701B6010E94B5086B017C0169817A81E4
:10106000E6E0660F771FEA95E1F7072E000C880B84
:10107000990B0E94D0099B01AC01C701B6010E94E7
:10108000B5086B017C016B817C817695762F662794
:1010900077956795072E000C880B990B0E94D00955
:1010A0009B01AC01C701B6010E94B5080E949809D6
:1010B000072E000C880B990B0E94D00920E030E02D
:1010C00040EA50E40E94850A20E030E04FE753E414
:1010D0000E94260920E030E040E250E40E94B4087B
:1010E0002DEC3CEC4CEC5DE30E94260943E00E94B1
:1010F000990361E085E00E94840387E291E00E9409
:10110000EE0181E0881A910809F014CF0E94DB02F9
:101110000E946A014B015C018AE0C82ED12CE12CAF
:10112000F12C0E946A01681979098A099B09683EB5
:10113000734081059105A8F391E0C91AD108E1082F
:10114000F10828EE820E23E0921EA11CB11CC114EE
:10115000D104E104F10429F780E090E0892B09F43F
:10116000DFCD0E940000DCCD5058BB27AA270E948B
:10117000CC080C94460A0E94380A38F00E943F0AB4
:1011800020F039F49F3F19F426F40C94350A0EF43C
:10119000E095E7FB0C942F0AE92F0E94570A58F3B9
:1011A000BA17620773078407950720F079F4A6F54C
:1011B0000C94790A0EF4E0950B2EBA2FA02D0B019A
:1011C000B90190010C01CA01A0011124FF27591B8C
:1011D00099F0593F50F4503E68F11A16F040A22F92
:1011E000232F342F4427585FF3CF46953795279503
:1011F000A795F0405395C9F77EF41F16BA0B620B02
:10120000730B840BBAF09150A1F0FF0FBB1F661F48
:10121000771F881FC2F70EC0BA0F621F731F841F8B
:1012200048F4879577956795B795F7959E3F08F0B1
:10123000B0CF9395880F08F09927EE0F9795879573
:1012400008950E940B0A08F481E008950E943A096B
:101250000C94460A0E943F0A58F00E94380A40F057
:1012600029F45F3F29F00C942F0A51110C947A0A4B
:101270000C94350A0E94570A68F39923B1F3552359
:1012800091F3951B550BBB27AA2762177307840799
:1012900038F09F5F5F4F220F331F441FAA1FA9F32F
:1012A00035D00E2E3AF0E0E832D091505040E6951D
:1012B000001CCAF72BD0FE2F29D0660F771F881F7E
:1012C000BB1F261737074807AB07B0E809F0BB0B71
:1012D000802DBF01FF2793585F4F3AF09E3F510585
:1012E00078F00C942F0A0C947A0A5F3FE4F3983E4E
:1012F000D4F3869577956795B795F7959F5FC9F76E
:10130000880F911D9695879597F90895E1E0660FEE
:10131000771F881FBB1F621773078407BA0720F067
:10132000621B730B840BBA0BEE1F88F7E0950895D0
:101330000E949F096894B1110C947A0A08950E9442
:101340005F0A88F09F5798F0B92F9927B751B0F0EE
:10135000E1F0660F771F881F991F1AF0BA95C9F739
:1013600014C0B13091F00E94790AB1E008950C9454
:10137000790A672F782F8827B85F39F0B93FCCF307
:10138000869577956795B395D9F73EF490958095B6
:10139000709561957F4F8F4F9F4F0895E89409C0D6
:1013A00097FB3EF490958095709561957F4F8F4F98
:1013B0009F4F9923A9F0F92F96E9BB279395F695AE
:1013C000879577956795B795F111F8CFFAF4BB0F2C
:1013D00011F460FF1BC06F5F7F4F8F4F9F4F16C090
:1013E000882311F096E911C0772321F09EE8872F1A
:1013F000762F05C0662371F096E8862F70E060E0D6
:101400002AF09A95660F771F881FDAF7880F96954E
:10141000879597F90895990F0008550FAA0BE0E8F2
:10142000FEEF16161706E807F907C0F012161306A6
:10143000E407F50798F0621B730B840B950B39F4E6
:101440000A2661F0232B242B252B21F408950A264C
:1014500009F4A140A6958FEF811D811D089597F98C
:101460009F6780E870E060E008959FEF80EC08954A
:1014700000240A9416161706180609060895002473
:101480000A9412161306140605060895092E0394ED
:10149000000C11F4882352F0BB0F40F4BF2B11F461
:1014A00060FF04C06F5F7F4F8F4F9F4F089557FDC0
:1014B0009058440F551F59F05F3F71F04795880FC2
:1014C00097FB991F61F09F3F79F087950895121659
:1014D00013061406551FF2CF4695F1DF08C0161605
:1014E00017061806991FF1CF8695710561050894B6
:1014F0000895E894BB2766277727CB0197F90895CD
:101500000E940B0A08F48FEF08950E94980A0C9429
:10151000460A0E94380A38F00E943F0A20F09523BC
:1015200011F00C942F0A0C94350A11240C947A0AA9
:101530000E94570A70F3959FC1F3950F50E0551F15
:10154000629FF001729FBB27F00DB11D639FAA2718
:10155000F00DB11DAA1F649F6627B00DA11D661F67
:10156000829F2227B00DA11D621F739FB00DA11D88
:10157000621F839FA00D611D221F749F3327A00D42
:10158000611D231F849F600D211D822F762F6A2FDE
:1015900011249F5750409AF0F1F088234AF0EE0F43
:1015A000FF1FBB1F661F771F881F91505040A9F770
:1015B0009E3F510580F00C942F0A0C947A0A5F3FED
:1015C000E4F3983ED4F3869577956795B795F795AC
:1015D000E7959F5FC1F7FE2B880F911D9695879524
:1015E00097F908950E940B0A880B990B0895A1E2C0
:1015F0001A2EAA1BBB1BFD010DC0AA1FBB1FEE1F8D
:10160000FF1FA217B307E407F50720F0A21BB30BD7
:10161000E40BF50B661F771F881F991F1A9469F753
:1016200060957095809590959B01AC01BD01CF01AF
:101630000895EE0FFF1F0590F491E02D0994F894A2
:02164000FFCFDA
:101642000000000093038C00EB018F016E616E00BD
:10165200696E66006F766600477261646F7320433D
:10166200656C7369757300416D706572696F7300A3
:00000001FF
